:020000040000FA
:060000000A128A11ED2F27
:100C8C00831603130810881008118811831203139C
:100C9C0008148810081188117108B5007008B40088
:100CAC0008007E088A007F0882000A128A115726E3
:100CBC000A128A118000840A04087D060319003484
:100CCC00FF0A0319FE0A5B2E3134323433344134BB
:100CDC00343435343634423437343834393443349C
:100CEC002A34303423344434023404340134083488
:100CFC00103400348F2EC730F200842EF20B832E6A
:100D0C00872E882E0130F0020030031CF103F10213
:100D1C008F2E70087104031D942E952E812E962E05
:100D2C000800F401F5019A2E701C9D2E9E2EA42E07
:100D3C007208F4070318F50A7308F507013003105D
:100D4C00F20DF30DFF3E031DA52E01300310F10C27
:100D5C00F00CFF3E031DAC2E70087104031DB72E62
:100D6C00B82E9A2EB92E7508F1007408F000BE2E1C
:100D7C00080083120313C0006830F6000130F7003E
:100D8C003B08F1003A08F0003508F3003408F20093
:100D9C000A128A1197260A128A117108F900700832
:100DAC00F8000A128A117A270A128A11770883121C
:100DBC000313BF007608BE00C101C201072F8312C6
:100DCC0003134308303E84000808F03983130004F1
:100DDC008800400843070339FB007B08C300FA3046
:100DEC00F0000030F1000A128A1180260A128A11D2
:100DFC00013083120313C1070318C20A0030C20763
:100E0C00072F4208803AFB003F08803A7B02031D03
:100E1C00112F3E084102031C142F152FE52E162FFF
:100E2C0008006430F0000030F1000A128A114626E6
:100E3C000A128A11B830F0000B30F1000A128A1134
:100E4C0080260A128A112A2F5A3083120313BA00F1
:100E5C000030BB006430BC000030BD0001300A1211
:100E6C008A11BF260A128A11B830F0000B30F1003B
:100E7C000A128A1180260A128A11B43083120313C3
:100E8C00BA000030BB001430BC000030BD00013093
:100E9C000A128A11BF260A128A11B830F0000B30E0
:100EAC00F1000A128A1180260A128A11D03083129C
:100EBC000313BA000230BB001430BC000030BD007C
:100ECC0001300A128A11BF260A128A11B830F000BA
:100EDC000B30F1000A128A1180260A128A112A2F6D
:100EEC002A2F0A128A11002883120313B701F71F45
:100EFC00802F812F892FF609F709F60A0319F70AB3
:100F0C00B701B70A892FF91F8C2F8D2F972FF8094E
:100F1C00F909F80A0319F90A0130FA007A08B70638
:100F2C00972FB801B9017608770403199E2F9F2FCC
:100F3C00DC2FB601B60AAE2F01300310F60DF70DFB
:100F4C00FF3E031DA32F0130FA007A08B607AE2F1F
:100F5C00F71FB12FB22FA22FB42FB42F01300310D3
:100F6C00B80DB90DFF3E031DB52F77087902031D8F
:100F7C00C12F76087802031CC42FC52FCD2F7608FD
:100F8C00F8027708031CF903F9023814CD2F01304D
:100F9C000310F70CF60CFF3E031DCE2F0130B602EA
:100FAC00031DD92FDA2FB42FDC2FDC2F37080319B0
:100FBC00E02FE12FE72FB809B909B80A0319B90ACC
:100FCC00E72F3908F7003808F600EC2F08008313D8
:100FDC003630FD000630FE006A30FF002030840001
:100FEC000A128A115B260A128A11C30183010A12A2
:040FFC008A11172F10
:04400E00D4E0FFFFFC
:00000001FF
